:020000020000FC
:0200000015C029
:10002C000FE50DBF02E00EBF1FD023D000E007BBD1
:10003C0064D0F0E0E6E471D0FBCF02566973696FCF
:10004C006E56726F6F6D0141726567204E616B6108
:10005C00736869616E0000E000BD09E109B908E14F
:10006C000AB906E800BD089500EC0BBF0AE805BF0D
:10007C000895BEE4A0E21ED028E3209300203DE0CA
:10008C0016D028E3209300203DE011D02FE02093E0
:10009C0000203DE00CD021E020930020B2E0A8EF3E
:1000AC0009D026E0209300203DE001D00895315086
:1000BC00F1F708951197F1F708951197F1F7715031
:1000CC00E1F708955CB108950BB10078E9F30CB138
:1000DC0008950CB90BB10072E9F308950DE0F9DF46
:1000EC000AE0F7DF08950591003031F0013011F08E
:1000FC00F0DFF9CFF3DFF7CF08952F9320E82093AB
:10010C00002033E1D4DF2F9108952F9320EC20931E
:10011C00002033E1CCDF2F91089515911030B1F010
:10012C00113061F0123079F0223011F4012FD1DF4F
:10013C0010930021B1E0A4EFBDDFEFCFE6DF22305A
:10014C0061F7CCDFEACF2F93212FE7CF223009F0D4
:10015C00D3CF2F91D1CF00930021B1E0A4EFAADF30
:10016C00089521E020930020B2E0A8EFA3DF0895CA
:10017C00003378F00A3360F0013458F0073430F073
:10018C00013638F007362CF40755089507530895B7
:04019C00005308956F
:00000001FF
